:10041B00041B000000000217000002090000021577
:0E042B0000000A0B00000000000000000000AE
:10039C0012047C1204A4D2AFE4F521F52212021748
:1003AC000522E52270020521C394E8E5219403405F
:1003BC00EC1203E1C3EF94C8EE940050DB1204AFCF
:1003CC007F647E001204551203E1C3EF94C8EE94CF
:0503DC000040EA80C3AF
:0D000E008F1A8D19D294C293C292D2912202
:0D048A008F1A8D19C294D293C292D2912282
:0D0497008F1A8D19D292C291D294C2932275
:0904AF00C294C293C292C29122D0
:100455007D7D7C00ED1D70011C144C70F7EF1F7045
:06046500011E144E70EAB6
:01046B00226E
:10034500E51AD394C84003751AC8E51AC394145026
:1003550003751A14E519D394C840037519C8E5192E
:10036500C394145003751914E508D3951A5004D293
:10037500958002C295E508C394C84003E4F508E5F5
:100385001FD395195004D2908002C290E51FC394E3
:07039500C84003E4F51F223C
:10043A00C2A10000000000D2A100000000000000DC
:0B044A000000000000000000C2A12222
:1003E100E4FFFEFDFC12043A30A0FDD28E20A0FDF8
:1003F100C28EAF8DEFFEAD8B7C00E42DFDEC3EFC9B
:10040100E4F58DF58BAE04AF051201297B777AE017
:0A041100793C783E12001E020162E1
:10021700A2B4E433FFA2B5E433FEA2B6E433FDA2F1
:10022700B7E433FCEE75F064A4FEEF75F0E8A42E96
:10023700FFED75F00AA42F2CFE1201F1026B0002EC
:10024700AA0102820A02A40B02924C02B156027260
:100257006402B16E02B16F0298E8026BE9029EF286
:10026700000002B87D257F2702000E7D287F25121A
:10027700048AEE6464603ABE0AF8227D257F2A125A
:100287000497EE640A602ABE64F8227D327F2880D4
:100297001D7D3C7F3C80177D3C7F3280117D287F10
:1002A7003480047D3C7F3C0204977D3C7F3C1204F4
:0102B7008ABC
:0102B8002223
:0E047C00438902758C9C758A9CD28CD2A92271
:0B04A400438910E4F58DF58BD2AB22EC
:03000B0002046C80
:10046C00C0E0C0D00508051F120345D0D0D0E03243
:03001B00020003DD
:05000300D200C2A03292
:10001E00EC4D6011E8497017ED33EC3304600DE4DC
:10002E00FCFFFEFD22E933E8330470F80201CE1224
:10003E00019958046009E4CC248150062850090225
:10004E0001D82840030201D5C0E0EB4A7044B980C4
:10005E0006D0E0FB0201C4EF4E701CBD8008EBFF22
:10006E00EAFEE9FD80EBE98DF0A4FEE5F002010762
:10007E00E9CDF9EAFEEBFFEF89F0A4FCE5F0CE89BD
:10008E00F0A42EFFE435F0CD89F0A42DFEE435F07A
:10009E008067EF4E7005BD80D780C3EF8BF0A4ACA8
:1000AE00F0EE8BF0A42CFCE435F0F8EF8AF0A42CE3
:1000BE00E5F038FCE433CB8DF0A42CFCE5F03BF8F6
:1000CE00EE8AF0A42CFCE5F038F8E433CF89F0A4E6
:1000DE002CFCE5F038CF3400CE89F0A42FFFE5F0EC
:1000EE003EFEE433C98DF0A42EFEE5F039CD8AF044
:1000FE00A42FFFE5F03EFEE43DFD33D0E0FB5007BC
:10010E000BBB000F0201D8EC2CFCEF33FFEE33FEDD
:06011E00ED33FD0201B00B
:1001240075F020800E75F010800575F0087D007E56
:10013400007F003392D530D5031201E3EC33401035
:10014400EF33FFEE33FEED33FDEC33FCD5F0ED225F
:0E015400E5F0247EA2D513CC92E7CDCEFF229B
:10016200EDD2E7CD33EC3392D524814006E4FFFE95
:10017200FDFC22FCE4CFCECDCC24E0501174FF80F4
:10018200EDC3CC13CCCD13CDCE13CECF13CF047091
:07019200F030D5DE0201E3AD
:10019900E9D2E7C933E833F892D5EDD2E7CD33ECAC
:0701A90033FC5002B2D52225
:1001B000EC30E7100FBF000C0EBE00080DBD0004B0
:1001C0000BEB6014A2D5EB13FCED92E7FD2274FF5C
:1001D000FCFDFEFF22E480F8A2D574FF13FC7D80B5
:0301E000E480EFC9
:030000000202B940
:0C02B900787FE4F6D8FD75812202030076
:0E01E300C3E49FFFE49EFEE49DFDE49CFC222D
:1001F100D083D082F8E4937012740193700DA3A39D
:1002010093F8740193F5828883E4737402936860B0
:06021100EFA3A3A380DFB0
:1002C50002039CE493A3F8E493A34003F68001F2B0
:1002D50008DFF48029E493A3F85407240CC8C3333A
:1002E500C4540F4420C8834004F456800146F6DF09
:1002F500E4800B010204081020408090041BE47E7A
:10030500019360BCA3FF543F30E509541FFEE493FD
:10031500A360010ECF54C025E060A840B8E493A3C4
:10032500FAE493A3F8E493A3C8C582C8CAC583CAEF
:10033500F0A3C8C582C8CAC583CADFE9DEE780BEA7
:0104390000C2
:00000001FF
